{
  "contractName": "demo",
  "abi": [
    {
      "inputs": [],
      "payable": false,
      "stateMutability": "nonpayable",
      "type": "constructor"
    },
    {
      "constant": false,
      "inputs": [
        {
          "name": "number",
          "type": "uint256"
        },
        {
          "name": "topic",
          "type": "string"
        },
        {
          "name": "startdate",
          "type": "string"
        },
        {
          "name": "enddate",
          "type": "string"
        },
        {
          "name": "state",
          "type": "string"
        },
        {
          "name": "result",
          "type": "string"
        },
        {
          "name": "judge",
          "type": "string"
        },
        {
          "name": "choose1",
          "type": "string"
        },
        {
          "name": "choose2",
          "type": "string"
        },
        {
          "name": "choose3",
          "type": "string"
        }
      ],
      "name": "addvotingdata",
      "outputs": [],
      "payable": false,
      "stateMutability": "nonpayable",
      "type": "function"
    },
    {
      "constant": true,
      "inputs": [],
      "name": "backordernumber",
      "outputs": [
        {
          "name": "",
          "type": "uint256"
        }
      ],
      "payable": false,
      "stateMutability": "view",
      "type": "function"
    },
    {
      "constant": true,
      "inputs": [],
      "name": "backvoting",
      "outputs": [
        {
          "name": "",
          "type": "uint256[]"
        }
      ],
      "payable": false,
      "stateMutability": "view",
      "type": "function"
    },
    {
      "constant": false,
      "inputs": [
        {
          "name": "number",
          "type": "uint256"
        },
        {
          "name": "choose",
          "type": "string"
        },
        {
          "name": "amount",
          "type": "uint256"
        }
      ],
      "name": "vote",
      "outputs": [],
      "payable": false,
      "stateMutability": "nonpayable",
      "type": "function"
    },
    {
      "constant": true,
      "inputs": [
        {
          "name": "number",
          "type": "uint256"
        },
        {
          "name": "choose",
          "type": "string"
        }
      ],
      "name": "backcredit",
      "outputs": [
        {
          "name": "",
          "type": "uint256"
        }
      ],
      "payable": false,
      "stateMutability": "view",
      "type": "function"
    },
    {
      "constant": false,
      "inputs": [
        {
          "name": "amount",
          "type": "uint256"
        }
      ],
      "name": "buy",
      "outputs": [],
      "payable": false,
      "stateMutability": "nonpayable",
      "type": "function"
    },
    {
      "constant": false,
      "inputs": [
        {
          "name": "amount",
          "type": "uint256"
        }
      ],
      "name": "sell",
      "outputs": [],
      "payable": false,
      "stateMutability": "nonpayable",
      "type": "function"
    },
    {
      "constant": true,
      "inputs": [],
      "name": "check_balance",
      "outputs": [
        {
          "name": "",
          "type": "uint256"
        }
      ],
      "payable": false,
      "stateMutability": "view",
      "type": "function"
    },
    {
      "constant": true,
      "inputs": [
        {
          "name": "index",
          "type": "uint256"
        },
        {
          "name": "num",
          "type": "uint256"
        }
      ],
      "name": "displayinfo",
      "outputs": [
        {
          "name": "",
          "type": "string"
        }
      ],
      "payable": false,
      "stateMutability": "view",
      "type": "function"
    }
  ],
  "bytecode": "0x6080604052600160005534801561001557600080fd5b506305f5e100600460003373ffffffffffffffffffffffffffffffffffffffff1673ffffffffffffffffffffffffffffffffffffffff1681526020019081526020016000208190555033600160006101000a81548173ffffffffffffffffffffffffffffffffffffffff021916908373ffffffffffffffffffffffffffffffffffffffff1602179055506112d1806100ae6000396000f300608060405260043610610099576000357c0100000000000000000000000000000000000000000000000000000000900463ffffffff16806309afc9101461009e5780631e87da33146100c95780634245369e1461012257806398ba1d46146101d2578063b796eae2146101fd578063d3d7213414610269578063d96a094a1461050c578063e4849b3214610539578063f0f4545714610566575b600080fd5b3480156100aa57600080fd5b506100b36105b5565b6040518082815260200191505060405180910390f35b3480156100d557600080fd5b5061010c600480360381019080803590602001909291908035906020019082018035906020019190919293919293905050506105be565b6040518082815260200191505060405180910390f35b34801561012e57600080fd5b506101576004803603810190808035906020019092919080359060200190929190505050610603565b6040518080602001828103825283818151815260200191508051906020019080838360005b8381101561019757808201518184015260208101905061017c565b50505050905090810190601f1680156101c45780820380516001836020036101000a031916815260200191505b509250505060405180910390f35b3480156101de57600080fd5b506101e7610cc3565b6040518082815260200191505060405180910390f35b34801561020957600080fd5b50610212610d0a565b6040518080602001828103825283818151815260200191508051906020019060200280838360005b8381101561025557808201518184015260208101905061023a565b505050509050019250505060405180910390f35b34801561027557600080fd5b5061050a60048036038101908080359060200190929190803590602001908201803590602001908080601f0160208091040260200160405190810160405280939291908181526020018383808284378201915050505050509192919290803590602001908201803590602001908080601f0160208091040260200160405190810160405280939291908181526020018383808284378201915050505050509192919290803590602001908201803590602001908080601f0160208091040260200160405190810160405280939291908181526020018383808284378201915050505050509192919290803590602001908201803590602001908080601f0160208091040260200160405190810160405280939291908181526020018383808284378201915050505050509192919290803590602001908201803590602001908080601f0160208091040260200160405190810160405280939291908181526020018383808284378201915050505050509192919290803590602001908201803590602001908080601f0160208091040260200160405190810160405280939291908181526020018383808284378201915050505050509192919290803590602001908201803590602001908080601f0160208091040260200160405190810160405280939291908181526020018383808284378201915050505050509192919290803590602001908201803590602001908080601f0160208091040260200160405190810160405280939291908181526020018383808284378201915050505050509192919290803590602001908201803590602001908080601f0160208091040260200160405190810160405280939291908181526020018383808284378201915050505050509192919290505050610d62565b005b34801561051857600080fd5b5061053760048036038101908080359060200190929190505050610f25565b005b34801561054557600080fd5b5061056460048036038101908080359060200190929190505050610fe4565b005b34801561057257600080fd5b506105b360048036038101908080359060200190929190803590602001908201803590602001919091929391929390803590602001909291905050506110a3565b005b60008054905090565b600060036000858152602001908152602001600020600a0183836040518083838082843782019150509250505090815260200160405180910390205490509392505050565b606060018214156106c457600360008481526020019081526020016000206001018054600181600116156101000203166002900480601f0160208091040260200160405190810160405280929190818152602001828054600181600116156101000203166002900480156106b85780601f1061068d576101008083540402835291602001916106b8565b820191906000526020600020905b81548152906001019060200180831161069b57829003601f168201915b50505050509050610cbd565b600282141561078357600360008481526020019081526020016000206002018054600181600116156101000203166002900480601f0160208091040260200160405190810160405280929190818152602001828054600181600116156101000203166002900480156107775780601f1061074c57610100808354040283529160200191610777565b820191906000526020600020905b81548152906001019060200180831161075a57829003601f168201915b50505050509050610cbd565b600382141561084257600360008481526020019081526020016000206003018054600181600116156101000203166002900480601f0160208091040260200160405190810160405280929190818152602001828054600181600116156101000203166002900480156108365780601f1061080b57610100808354040283529160200191610836565b820191906000526020600020905b81548152906001019060200180831161081957829003601f168201915b50505050509050610cbd565b600482141561090157600360008481526020019081526020016000206004018054600181600116156101000203166002900480601f0160208091040260200160405190810160405280929190818152602001828054600181600116156101000203166002900480156108f55780601f106108ca576101008083540402835291602001916108f5565b820191906000526020600020905b8154815290600101906020018083116108d857829003601f168201915b50505050509050610cbd565b60058214156109c057600360008481526020019081526020016000206005018054600181600116156101000203166002900480601f0160208091040260200160405190810160405280929190818152602001828054600181600116156101000203166002900480156109b45780601f10610989576101008083540402835291602001916109b4565b820191906000526020600020905b81548152906001019060200180831161099757829003601f168201915b50505050509050610cbd565b6006821415610a7f57600360008481526020019081526020016000206006018054600181600116156101000203166002900480601f016020809104026020016040519081016040528092919081815260200182805460018160011615610100020316600290048015610a735780601f10610a4857610100808354040283529160200191610a73565b820191906000526020600020905b815481529060010190602001808311610a5657829003601f168201915b50505050509050610cbd565b6007821415610b3e57600360008481526020019081526020016000206007018054600181600116156101000203166002900480601f016020809104026020016040519081016040528092919081815260200182805460018160011615610100020316600290048015610b325780601f10610b0757610100808354040283529160200191610b32565b820191906000526020600020905b815481529060010190602001808311610b1557829003601f168201915b50505050509050610cbd565b6008821415610bfd57600360008481526020019081526020016000206008018054600181600116156101000203166002900480601f016020809104026020016040519081016040528092919081815260200182805460018160011615610100020316600290048015610bf15780601f10610bc657610100808354040283529160200191610bf1565b820191906000526020600020905b815481529060010190602001808311610bd457829003601f168201915b50505050509050610cbd565b6009821415610cbc57600360008481526020019081526020016000206009018054600181600116156101000203166002900480601f016020809104026020016040519081016040528092919081815260200182805460018160011615610100020316600290048015610cb05780601f10610c8557610100808354040283529160200191610cb0565b820191906000526020600020905b815481529060010190602001808311610c9357829003601f168201915b50505050509050610cbd565b5b92915050565b6000600460003373ffffffffffffffffffffffffffffffffffffffff1673ffffffffffffffffffffffffffffffffffffffff16815260200190815260200160002054905090565b60606002805480602002602001604051908101604052809291908181526020018280548015610d5857602002820191906000526020600020905b815481526020019060010190808311610d44575b5050505050905090565b610d6a6111ac565b610140604051908101604052808c81526020018b81526020018a815260200189815260200188815260200187815260200186815260200185815260200184815260200183815250905080600360008d8152602001908152602001600020600082015181600001556020820151816001019080519060200190610ded929190611200565b506040820151816002019080519060200190610e0a929190611200565b506060820151816003019080519060200190610e27929190611200565b506080820151816004019080519060200190610e44929190611200565b5060a0820151816005019080519060200190610e61929190611200565b5060c0820151816006019080519060200190610e7e929190611200565b5060e0820151816007019080519060200190610e9b929190611200565b50610100820151816008019080519060200190610eb9929190611200565b50610120820151816009019080519060200190610ed7929190611200565b5090505060028b908060018154018082558091505090600182039060005260206000200160009091929091909150555060008081548092919060010191905055505050505050505050505050565b80600460003373ffffffffffffffffffffffffffffffffffffffff1673ffffffffffffffffffffffffffffffffffffffff168152602001908152602001600020600082825401925050819055508060046000600160009054906101000a900473ffffffffffffffffffffffffffffffffffffffff1673ffffffffffffffffffffffffffffffffffffffff1673ffffffffffffffffffffffffffffffffffffffff1681526020019081526020016000206000828254039250508190555050565b8060046000600160009054906101000a900473ffffffffffffffffffffffffffffffffffffffff1673ffffffffffffffffffffffffffffffffffffffff1673ffffffffffffffffffffffffffffffffffffffff1681526020019081526020016000206000828254019250508190555080600460003373ffffffffffffffffffffffffffffffffffffffff1673ffffffffffffffffffffffffffffffffffffffff1681526020019081526020016000206000828254039250508190555050565b8060036000868152602001908152602001600020600a018484604051808383808284378201915050925050509081526020016040518091039020600082825401925050819055508060046000600160009054906101000a900473ffffffffffffffffffffffffffffffffffffffff1673ffffffffffffffffffffffffffffffffffffffff1673ffffffffffffffffffffffffffffffffffffffff1681526020019081526020016000206000828254019250508190555080600460003373ffffffffffffffffffffffffffffffffffffffff1673ffffffffffffffffffffffffffffffffffffffff1681526020019081526020016000206000828254039250508190555050505050565b61014060405190810160405280600081526020016060815260200160608152602001606081526020016060815260200160608152602001606081526020016060815260200160608152602001606081525090565b828054600181600116156101000203166002900490600052602060002090601f016020900481019282601f1061124157805160ff191683800117855561126f565b8280016001018555821561126f579182015b8281111561126e578251825591602001919060010190611253565b5b50905061127c9190611280565b5090565b6112a291905b8082111561129e576000816000905550600101611286565b5090565b905600a165627a7a72305820d11eb53119030b8ec7f98eeb3db2c6c6483b53dd817ee0b2628e867446c828050029",
  "source": "pragma solidity ^0.4.24;\n\ncontract demo {\n    struct Votingdata {\n        uint number;                        //投票编号\n        string topic;                       //投票主题\n        string startdate;                   //开始时间\n        string enddate;                     //结束时间\n        string state;                       //投票状态\n        string result;                      //投票结果\n        string judge;                       //判定条件\n        string  choose1;                    //选项1\n        string  choose2;                    //选项2\n        string  choose3;                    //选项3\n        mapping(string => uint) credit;     //通证数\n    }\n    \n    uint ordernumber = 1;\n    address owner;\n    uint[] record;\n    mapping(uint => Votingdata) order;\n    mapping(address => uint256) balanceOf;\n    \n    constructor() public {\n        balanceOf[msg.sender] = 100000000;\n        owner = msg.sender;\n    }\n\n    function addvotingdata(\n        uint number,\n        string memory topic,\n        string memory startdate,\n        string memory enddate,\n        string memory state,\n        string memory result,\n        string memory judge,\n        string memory choose1,\n        string memory choose2,\n        string memory choose3\n    ) public {\n        Votingdata memory votingdata = Votingdata(number,topic,startdate,enddate,state,result,judge,choose1,choose2,choose3);\n        order[number] = votingdata;\n        record.push(number);\n        ordernumber++;\n    }\n\n    function backordernumber() external view returns (uint) {\n        return ordernumber;\n    }\n\n    function backvoting() external view returns (uint[]) {\n        return record;\n    }\n\n    function vote(uint number,string choose,uint amount) external {\n        order[number].credit[choose] += amount;\n        balanceOf[owner] += amount;\n        balanceOf[msg.sender] -= amount;\n    }\n\n    function backcredit(uint number,string choose) external view returns (uint){\n        return order[number].credit[choose];\n    }\n\n    /**\n     * guobin\n     * 购买初始通证，作为押金\n    */\n    function buy(uint amount) external {   \n        balanceOf[msg.sender] += amount;\n        balanceOf[owner] -= amount;\n    }\n    \n    /**\n     * guobin\n     * 卖出通证\n    */\n    function sell(uint amount) external {\n        balanceOf[owner] += amount;\n        balanceOf[msg.sender] -= amount;\n    }\n\n    /**\n     * guobin\n     * 返回当前用户账户余额\n    */\n    function check_balance() external view returns (uint) {\n        return balanceOf[msg.sender];\n    }\n\n\n    function displayinfo(uint index,uint num) external view returns (string) {\n        if(num == 1) {\n            return order[index].topic;\n        }\n        else if(num == 2) {\n            return order[index].startdate;\n        }\n        else if(num == 3) {\n            return order[index].enddate;\n        }\n        else if(num == 4) {\n            return order[index].state;\n        }\n        else if(num == 5) {\n            return order[index].result;\n        }\n        else if(num == 6) {\n            return order[index].judge;\n        }\n        else if(num == 7) {\n            return order[index].choose1;\n        }\n        else if(num == 8) {\n            return order[index].choose2;\n        }\n        else if(num == 9) {\n            return order[index].choose3;\n        }\n    }\n    \n\n    \n    \n    \n    \n    \n    \n    \n    \n    \n    \n    \n    \n    \n    \n    \n}",
  "sourcePath": "/blockpro/token-voting-system/contracts/demo.sol",
  "compiler": {
    "name": "solc",
    "version": "0.4.24+commit.e67f0147.Emscripten.clang"
  },
  "schemaVersion": "2.0.1",
  "updatedAt": "2019-05-02T05:39:22.451Z"
}